:1000000012C02CC02BC02AC029C028C027C026C0BF
:1000100025C024C023C0C9C321C020C01FC01EC02A
:100020001DC01CC01BC011241FBECFE5D4E0DEBF25
:10003000CDBF11E0A0E6B0E0E6E9FEE002C0059029
:100040000D92AE30B107D9F711E0AEE0B1E001C0DA
:100050001D92A234B107E1F7A6D01BC7D1CF85E02E
:1000600087BB8CEF81BB88EF82BBC2988FE385BBD7
:1000700084E088BB909A08950F931F93CF93DF93EA
:10008000EC01162F072F80E690E063E070E0AE01F0
:10009000212F302F31D38F5F9F4F79F080E690E092
:1000A00063E070E0AE01212F302F26D31350181BD0
:1000B00003968C0F9D1F612FC1D2DF91CF911F91AD
:1000C0000F9108950F931F93CF93DF938091E700D3
:1000D000C0E0D0E0082F10E0CE01800F911FEDD5D9
:1000E000FE01E25FFE4F80832196C630D105A1F765
:1000F0001092140120910E012F3FF1F480910F0115
:100100008F3FD1F4809110018F3FB1F481E680934D
:100110000E0182E680930F0183E68093100184E64E
:100120008093110185E68093120186E68093130186
:1001300084E690E0BFD332C08DB79EB70E970FB65E
:10014000F8949EBF0FBE8DBFEDB7FEB731968CE71A
:1001500090E0ADB7BEB712969C938E931197228311
:10016000138280910F018483158280911001868310
:1001700017828091110180871186809112018287F8
:10018000138680911301848715867CD38DB79EB723
:100190000E960FB6F8949EBF0FBE8DBFDF91CF9124
:1001A0001F910F9108955F926F927F928F929F920D
:1001B000AF92BF92CF92DF92EF92FF920F931F9375
:1001C000DF93CF93CDB7DEB72F970FB6F894DEBF8E
:1001D0000FBECDBF44DF5CD2C29881E990E06AD304
:1001E000C29A70DF6E010894C11CD11C47E9842EAD
:1001F00040E0942E38ECE32EF12C5524539420EE5D
:10020000A22E20E0B22E99E3792E80E3682EC6015B
:100210006FE0AED180998AC0C2988823C1F38091E3
:100220001B018823A9F48981809315018A81809319
:1002300016018B81809317018C81809318018D8129
:10024000809319018E8180931A0150921B01DFCF98
:1002500085E191E066E070E0A60126E030E04CD256
:100260008F5F9F4F31F080911B018F5F80931B0147
:1002700002C010921B0180911B01833041F600E007
:1002800010E08091E700F601E00FF11FD801A80F00
:10029000B11DCD01608119D50F5F1F4F06301105CB
:1002A00081F710921401C29A2DB73EB72E503040FC
:1002B0000FB6F8943EBF0FBE2DBFEDB7FEB7319617
:1002C000ADB7BEB712969C928E92119789818283A8
:1002D00013828A81848315828B81868317828C8125
:1002E000808711868D81828713868E81848715860B
:1002F000C9D22DB73EB7225F3F4F0FB6F8943EBF2D
:100300000FBE2DBF80EB90E0D5D2C29888EE93E06F
:10031000F7013197F1F70197D9F7C29A80E197E297
:10032000F7013197F1F70197D9F771CF882309F4D5
:1003300075C0C298C60167E070E0BAD18AE090E06B
:10034000B3D28EE091E066E070E0A60127E030E0F5
:10035000D3D18F5F9F4F09F460C08F818133B1F497
:1003600082B392B3909594708B7F982B92BB89EC5B
:1003700090E0A0D283B382708093EE0084EF91E08E
:10038000F7013197F1F70197D9F747C0813681F42A
:1003900092988CEC90E08ED283B382708093EE00C2
:1003A00084EF91E0F7013197F1F70197D9F735C064
:1003B000813481F4929A80ED90E07CD283B3827094
:1003C0008093EE0084EF91E0F7013197F1F7019708
:1003D000D9F723C0803381F484ED90E06BD29298FA
:1003E00083B382708093EE0084EF91E0F701319740
:1003F000F1F70197D9F711C0893379F48AED90E0CC
:1004000059D2929A83B382708093EE0084EF91E088
:10041000F7013197F1F70197D9F7C29A999913C06B
:10042000C29883B382708093EE00709214018EE0C4
:1004300091E067E003D1C29A80E197E2F70131973A
:10044000F1F70197D9F7999B0EC08091EE008823B0
:1004500051F483B382708093EE00609214018EE0B9
:1004600091E067E0EBD0989B04C08091E80088237E
:1004700031F0989929C08091E800882329F100D0B3
:1004800000D0EDB7FEB73196ADB7BEB71296BC92AD
:10049000AE9211978091E80082831382F3D183B3E7
:1004A00081708093E80092B382B3809584709B7FC3
:1004B000892B82BB709214010F900F900F900F90B8
:1004C0008EE091E067E0BAD0C29AA1CEB19B18C08D
:1004D00086B380E090E026E232E0F9013197F1F74F
:1004E000B19B05C0019683329105B9F709C08D31E2
:1004F000910530F04F9720F4B19BFECF81E0089535
:1005000080E0089540E027E030E0ECE4F4E061E0D2
:1005100070E0CF010197F1F7B19B0AC0B199FECF0E
:10052000CB01022E02C0880F991F0A94E2F7482BD4
:10053000B19BFECF215030408FEF2F3F380749F756
:10054000842F08950F931F93CF93DF93062FEC0111
:1005500010E005C0D7DF89938D3019F01F5F1017A9
:10056000C8F3812F90E0DF91CF911F910F910895F3
:100570001F93CF93DF93EC01162FA8DF882319F484
:1005800020E030E004C0CE01612FDCDF9C01C90116
:10059000DF91CF911F910895882349F0C09A82E797
:1005A00096E00197F1F7C09886E292E008C0C09A01
:1005B00086E292E00197F1F7C09882E796E0019712
:1005C000F1F70895C09A84E790E40197F1F7C09895
:1005D00086E292E00197F1F70895FF920F931F933F
:1005E000CF93DF93F82EC0E0D0E000E810E0C80120
:1005F0000C2E02C0959587950A94E2F78F21CCDFE7
:100600002196C830D10599F7DF91CF911F910F91B5
:10061000FF9008950F931F93CF93DF93062FEC0164
:1006200010E003C08991D9DF1F5F1017D8F38DE068
:10063000D4DFDF91CF911F910F910895DF92EF9258
:10064000FF920F931F938C01D62EBCDFC8016D2D36
:10065000E1DF82E3E82E8BE4F82EC7010197F1F782
:10066000B1DFC8016D2DD6DFC7010197F1F71F91EA
:100670000F91FF90EF90DF9008951F93182F8A300D
:1006800011F48DE0FADF5D9BFECF1CB91F91089538
:1006900010BC83E389B91BB886E880BD88E98AB9B4
:1006A00080E091E090933F0180933E01789408951B
:1006B000EF92FF920F931F93CF93DF937C018B01F7
:1006C000C0E0D0E006C0F701EC0FFD1F8081D5DF50
:1006D0002196C017D107BCF3DF91CF911F910F91E5
:1006E000FF90EF9008950895ECE1F1E0119281E020
:1006F000EA33F807D9F708958F929F92AF92BF928D
:10070000CF92DF92EF92FF920F931F93CF93DF93DD
:100710004C01EB015A01690140E050E07B01089473
:10072000E11CF11C8B010150104016C0D401A20F36
:10073000B31FF501E20FF31FE40FF51F9C918081B9
:10074000981397012017310781F02F5F3F4FC21791
:10075000D30760F74F5F5F4FBA01C416D50618F094
:1007600020E030E0F4CF6FEF7FEFCB01DF91CF914E
:100770001F910F91FF90EF90DF90CF90BF90AF90BF
:100780009F908F900895FC01AFE1B1E007C08D917B
:100790003196981719F020E030E005C09081992338
:1007A000B1F721E030E0C90108951F920F920FB612
:1007B0000F9211242F933F934F935F936F937F93E7
:1007C0008F939F93AF93BF93EF93FF9360913A0101
:1007D00070913B018CB1FB01E45EFE4F83838D3051
:1007E000F9F48FE191E048DC892B59F000D08FEECD
:1007F00090E0EDB7FEB79283818344D00F900F90C5
:1008000003C08AE090E050D010923B0110923A0170
:10081000ECE1F1E0119281E0EA33F807D9F70DC07D
:100820002CDF80913A0190913B0101966DE170E0DF
:1008300015D090933B0180933A01FF91EF91BF91C6
:10084000AF919F918F917F916F915F914F913F9168
:100850002F910F900FBE0F901F901895AA1BBB1BD6
:1008600051E107C0AA1FBB1FA617B70710F0A61BB0
:10087000B70B881F991F5A95A9F780959095BC01D1
:10088000CD010895A0E0B0E0E7E4F4E0DBC2FE01B2
:1008900035966191719180913E0190913F01AF0138
:1008A0003ED02096E2E0EAC260913E0170913F01A5
:1008B0002FD208950F931F93CF93DF938C01E09174
:1008C0003E01F0913F01838181FF21C0C0E0D0E073
:1008D0000DC0E0913E01F0913F0120853185BF01BF
:1008E000F9010995892B11F0CFEFDFEFF801819124
:1008F0008F01882371F7E0913E01F0913F0120853F
:1009000031858AE0BF01F9010995892B11F0CFEFFC
:10091000DFEFCE01DF91CF911F910F910895ABE0F2
:10092000B0E0E4E9F4E07EC23C012B015A01FC0195
:1009300017821682838181FD03C06FEF7FEFB9C1FB
:100940009AE0892E1E010894211C311CF301238199
:10095000F20123FD859123FF81912F01882309F462
:10096000A5C1853239F423FD859123FF81912F01A3
:10097000853221F490E0B301CBD1E8CF982FFF244A
:10098000EE249924FFE1FF15D0F09B3269F09C32F0
:1009900028F4903259F0933291F40EC09D3249F010
:1009A000903369F441E024C052E0F52A84E0F82A4B
:1009B00028C098E0F92A25C0E0E1FE2A22C0F7FC11
:1009C00029C0892F80538A3070F4F6FE05C0989CA8
:1009D000902C1124980E15C0E89CE02C1124E80EF0
:1009E000F0E2FF2A0EC09E3229F4F6FC5FC140E41B
:1009F000F42A07C09C3619F450E8F52A02C098364C
:100A000049F4F20123FD959123FF91912F01992340
:100A100009F0B8CF892F8554833018F08052833085
:100A200038F444E050E0A40EB51E5FE359830FC0D4
:100A3000933631F0933779F0933509F052C01FC0E7
:100A4000F5018081898342E050E0A40EB51E61016A
:100A500001E010E011C0F501C080D180F6FC03C0B8
:100A60006FEF7FEF02C0692D70E042E050E0A40E0E
:100A7000B51EC60142D18C015FE7F52213C0F50116
:100A8000C080D180F6FC03C06FEF7FEF02C0692DFC
:100A900070E042E050E0A40EB51EC60123D18C01E7
:100AA00050E8F52AF3FE06C018C080E290E0B301DA
:100AB0002FD1EA948E2D90E008171907B0F30DC0DE
:100AC000F601F7FC8591F7FE81916F0190E0B3018B
:100AD0001FD1E110EA94015010400115110581F772
:100AE000E2C0943611F0993661F5F7FE08C0F501C1
:100AF000208131814281538184E090E00AC0F50178
:100B0000808191819C01442737FD4095542F82E0DC
:100B100090E0A80EB91E9FE6F92257FF09C0509534
:100B20004095309521953F4F4F4F5F4FE0E8FE2AAB
:100B3000CA01B901A1012AE030E016D1D82ED2189D
:100B40003FC0953729F41F2D1F7E2AE030E01DC0DD
:100B50001F2D197F9F3661F0903720F4983509F0EA
:100B6000A5C00FC0903739F0983709F09FC004C076
:100B700028E030E00AC0106114FD146020E130E08C
:100B800004C014FD166020E132E017FF08C0F50133
:100B9000608171818281938144E050E008C0F50159
:100BA00080819181BC0180E090E042E050E0A40EA1
:100BB000B51EA101D9D0D82ED2188FE7F82EF12278
:100BC000F6FE0BC05EEFF522D91438F4F4FE07C030
:100BD000F2FC05C08FEEF82202C01D2D01C0192DB8
:100BE000F4FE0DC0FE01ED0DF11D8081803319F47E
:100BF00099EEF92208C01F5FF2FE05C003C08F2DD9
:100C0000867809F01F5F0F2DF3FC13C0F0FE0EC0B5
:100C10001E1510F09D2C0AC09D2C9E0C911A1E2DA5
:100C200005C080E290E0B30173D01F5F1E15C8F3CA
:100C300004C01E1510F4E11A01C0EE2404FF0EC01A
:100C400080E390E0B30164D002FF1BC001FD03C04C
:100C500088E790E00EC088E590E00BC0802F867892
:100C600081F001FF02C08BE201C080E2F7FC8DE25F
:100C700090E0B3014DD005C080E390E0B30148D0CF
:100C80009A94D914C8F3DA94F101ED0DF11D808125
:100C900090E0B3013DD0DD20B1F705C080E290E0E7
:100CA000B30136D0EA94EE20C9F750CEF301668145
:100CB0007781CB012B96E2E1D1C0E199FECF9FBBBA
:100CC0008EBBE09A99278DB30895262FE199FECF28
:100CD0009FBB8EBB2DBB0FB6F894E29AE19A0FBE74
:100CE00001960895FC010590615070400110D8F7FD
:100CF000809590958E0F9F1F0895FC016150704064
:100D000001900110D8F7809590958E0F9F1F089540
:100D10000F931F93CF93DF938C01EB018B8181FFA6
:100D20001BC082FF0DC02E813F818C819D812817C1
:100D3000390764F4E881F9810193F983E88306C0F7
:100D4000E885F985802F0995892B31F48E819F8163
:100D500001969F838E8302C00FEF1FEFC801DF91C2
:100D6000CF911F910F910895FA01AA27283051F1D0
:100D7000203181F1E8946F936E7F6E5F7F4F8F4FCC
:100D80009F4FAF4FB1E03ED0B4E03CD0670F781F2B
:100D9000891F9A1FA11D680F791F8A1F911DA11D10
:100DA0006A0F711D811D911DA11D20D009F4689449
:100DB0003F912AE0269F11243019305D3193DEF6F1
:100DC000CF010895462F4770405D4193B3E00FD0A7
:100DD000C9F7F6CF462F4F70405D4A3318F0495D92
:100DE00031FD4052419302D0A9F7EACFB4E0A69575
:100DF0009795879577956795BA95C9F70097610597
:100E0000710508959B01AC010A2E069457954795EC
:100E100037952795BA95C9F7620F731F841F951FE1
:100E2000A01D08952F923F924F925F926F927F92F2
:100E30008F929F92AF92BF92CF92DF92EF92FF92EA
:100E40000F931F93CF93DF93CDB7DEB7CA1BDB0B96
:100E50000FB6F894DEBF0FBECDBF09942A8839883B
:100E600048885F846E847D848C849B84AA84B98442
:100E7000C884DF80EE80FD800C811B81AA81B9814E
:100E8000CE0FD11D0FB6F894DEBF0FBECDBFED0162
:060E90000895F894FFCF65
:100E960072662000636F6465203D20646566617537
:100EA6006C74203D2061626364656600636F6465EF
:100EB600203D202563256325632563256325630A75
:100EC600005374617274006E657720636F646520E9
:100ED6003D202563256325632563256325630A0075
:100EE600726573657420746F206170706C7920630D
:100EF60068616E6765737373004C31004C31300066
:100F06004C313100414C4C2D3000414C4C2D3100C0
:100F16000A4C31202564000A010101010101010A80
:100F260042616420436F6D6D616E640A2D3E200040
:0E0F360000000002000000003D03000000006B
:00000001FF
