:1000000012C02CC02BC02AC029C028C027C026C0BF
:1000100025C024C023C0B5C221C020C01FC01EC03F
:100020001DC01CC01BC011241FBECFE5D4E0DEBF25
:10003000CDBF10E0A0E6B0E0E4E5FCE002C0059032
:100040000D92A03DB107D9F711E0A0EDB0E001C0DD
:100050001D92A430B107E1F78CD0FAC5D1CF85E06D
:1000600087BB8CEF81BB88EF82BBC2988FE385BBD7
:1000700084E088BB909A0895DF92EF92FF920F93ED
:100080001F930091A90010E0C80103D5F82E8093BA
:10009000D000C8010196FDD4D82E8093D100C801AC
:1000A0000296F7D4E82E8093D200C8010396F1D4CB
:1000B0008093D300C8010496ECD48093D400C80187
:1000C0000596E7D48093D5001092D6008FEFF816EE
:1000D000D1F4D816C1F4E816B1F481E68093D000CB
:1000E00082E68093D10083E68093D20084E68093F9
:1000F000D30085E68093D40086E68093D50080E621
:1001000090E0C4D230C0ADB7BEB71E970FB6F8941A
:10011000BEBF0FBEADBFEDB7FEB7319688E790E02A
:1001200012969C938E931197F28213828091D10044
:10013000848315828091D200868317828091D300B8
:10014000808711868091D400828713868091D500A4
:100150008487158683D28DB79EB70E960FB6F89416
:100160009EBF0FBE8DBF1F910F91FF90EF90DF904C
:100170000895EF92FF920F931F93CF93DF936FDF5A
:1001800073D1C2988DE890E081D2C29A75DF03E9FD
:1001900010E099E3E92E80E3F82ECEE9D0E0999BB8
:1001A00004C08091B000882331F0999929C08091D2
:1001B000B000882329F1C29800D000D0EDB7FEB777
:1001C0003196ADB7BEB712961C930E9311978091DE
:1001D000B0008283138242D283B382708093B000D6
:1001E0000F900F900F900F90882319F0F092D60087
:1001F00002C0E092D60080ED90E067E00BD1C29A99
:10020000989B04C08091AA00882331F09899C7CFA9
:100210008091AA00882319F200D000D0EDB7FEB774
:100220003196ADB7BEB71296DC93CE9311978091FD
:10023000AA008283138212D283B381708093AA00B2
:1002400092B382B3809584709B7F892B82BB0F9081
:100250000F900F900F90A3CF0F931F93CF93DF9327
:10026000EC01162F072F85EA90E063E070E0AE0105
:10027000212F302F2DD18F5F9F4F79F085EA90E0AD
:1002800063E070E0AE01212F302F22D11350181BF4
:1002900003968C0F9D1F612FBDD0DF91CF911F91D1
:1002A0000F910895B19B18C086B380E090E026E2DC
:1002B00032E0F9013197F1F7B19B05C00196833225
:1002C0009105B9F709C08D31910530F04F9720F4B1
:1002D000B19BFECF81E0089580E0089540E027E0E3
:1002E00030E0ECE4F4E061E070E0CF010197F1F779
:1002F000B19B0AC0B199FECFCB01022E02C0880F7C
:10030000991F0A94E2F7482BB19BFECF2150304051
:100310008FEF2F3F380749F7842F08950F931F93CE
:10032000CF93DF93062FEC0110E005C0D7DF899350
:100330008D3019F01F5F1017C8F3812F90E0DF9107
:10034000CF911F910F9108951F93CF93DF93EC01ED
:10035000162FA8DF882319F420E030E004C0CE0176
:10036000612FDCDF9C01C901DF91CF911F910895BE
:10037000882349F0C09A82E796E00197F1F7C09888
:1003800086E292E008C0C09A86E292E00197F1F717
:10039000C09882E796E00197F1F70895C09A84E744
:1003A00090E40197F1F7C09886E292E00197F1F7A7
:1003B0000895FF920F931F93CF93DF93F82EC0E021
:1003C000D0E000E810E0C8010C2E02C0959587959A
:1003D0000A94E2F78F21CCDF2196C830D10599F736
:1003E000DF91CF911F910F91FF9008950F931F936D
:1003F000CF93DF93062FEC0110E003C08991D9DF82
:100400001F5F1017D8F38DE0D4DFDF91CF911F91DC
:100410000F910895DF92EF92FF920F931F938C013B
:10042000D62EBCDFC8016D2DE1DF82E3E82E8BE420
:10043000F82EC7010197F1F7B1DFC8016D2DD6DFA6
:10044000C7010197F1F71F910F91FF90EF90DF9097
:1004500008951F93182F8A3011F48DE0FADF5D9B09
:10046000FECF1CB91F91089510BC83E389B91BB856
:1004700086E880BD88E98AB982EC90E0909301011A
:100480008093000178940895EF92FF920F931F9349
:10049000CF93DF937C018B01C0E0D0E006C0F70171
:1004A000EC0FFD1F8081D5DF2196C017D107BCF36B
:1004B000DF91CF911F910F91FF90EF9008950895D4
:1004C000EEEDF0E0119280E0EC3FF807D9F70895E7
:1004D0008F929F92AF92BF92CF92DF92EF92FF9254
:1004E0000F931F93CF93DF934C01EB015A016901E6
:1004F00040E050E07B010894E11CF11C8B010150AD
:10050000104016C0D401A20FB31FF501E20FF31F74
:10051000E40FF51F9C9180819813970120173107F4
:1005200081F02F5F3F4FC217D30760F74F5F5F4FD8
:10053000BA01C416D50618F020E030E0F4CF6FEF12
:100540007FEFCB01DF91CF911F910F91FF90EF9043
:10055000DF90CF90BF90AF909F908F900895FC0157
:10056000A1EEB0E007C08D913196981719F020E008
:1005700030E005C090819923B1F721E030E0C90156
:1005800008951F920F920FB60F9211242F933F934D
:100590004F935F936F937F938F939F93AF93BF938B
:1005A000EF93FF936091FC007091FD008CB1FB0113
:1005B000E252FF4F83838D30F9F481EE90E04CDE00
:1005C000892B59F000D081EB90E0EDB7FEB7928314
:1005D000818344D00F900F9003C08AE090E050D008
:1005E0001092FD001092FC00EEEDF0E0119280E020
:1005F000EC3FF807D9F70DC02CDF8091FC009091FB
:10060000FD0001966DE170E015D09093FD008093A0
:10061000FC00FF91EF91BF91AF919F918F917F91DE
:100620006F915F914F913F912F910F900FBE0F905F
:100630001F901895AA1BBB1B51E107C0AA1FBB1F27
:10064000A617B70710F0A61BB70B881F991F5A955E
:10065000A9F780959095BC01CD010895A0E0B0E088
:10066000E3E3F3E0CEC2FE01359661917191809192
:10067000000190910101AF013ED02096E2E0DDC281
:10068000609100017091010122D208950F931F9390
:10069000CF93DF938C01E0910001F0910101838100
:1006A00081FF21C0C0E0D0E00DC0E0910001F091D9
:1006B000010120853185BF01F9010995892B11F0D0
:1006C000CFEFDFEFF80181918F01882371F7E0917F
:1006D0000001F0910101208531858AE0BF01F90117
:1006E0000995892B11F0CFEFDFEFCE01DF91CF918C
:1006F0001F910F910895ABE0B0E0E0E8F3E071C224
:100700003C012B015A01FC0117821682838181FD75
:1007100003C06FEF7FEFB9C19AE0892E1E010894E4
:10072000211C311CF3012381F20123FD859123FF5C
:1007300081912F01882309F4A5C1853239F423FD65
:10074000859123FF81912F01853221F490E0B3013F
:10075000BED1E8CF982FFF24EE249924FFE1FF15A6
:10076000D0F09B3269F09C3228F4903259F09332E9
:1007700091F40EC09D3249F0903369F441E024C0F9
:1007800052E0F52A84E0F82A28C098E0F92A25C02A
:10079000E0E1FE2A22C0F7FC29C0892F80538A306D
:1007A00070F4F6FE05C0989C902C1124980E15C08C
:1007B000E89CE02C1124E80EF0E2FF2A0EC09E32E5
:1007C00029F4F6FC5FC140E4F42A07C09C3619F412
:1007D00050E8F52A02C0983649F4F20123FD9591BC
:1007E00023FF91912F01992309F0B8CF892F8554C8
:1007F000833018F08052833038F444E050E0A40E87
:10080000B51E5FE359830FC0933631F0933779F00B
:10081000933509F052C01FC0F5018081898342E001
:1008200050E0A40EB51E610101E010E011C0F50119
:10083000C080D180F6FC03C06FEF7FEF02C0692D4E
:1008400070E042E050E0A40EB51EC60135D18C0127
:100850005FE7F52213C0F501C080D180F6FC03C02C
:100860006FEF7FEF02C0692D70E042E050E0A40E10
:10087000B51EC60116D18C0150E8F52AF3FE06C05C
:1008800018C080E290E0B30122D1EA948E2D90E06E
:1008900008171907B0F30DC0F601F7FC8591F7FEB4
:1008A00081916F0190E0B30112D1E110EA940150FF
:1008B00010400115110581F7E2C0943611F0993608
:1008C00061F5F7FE08C0F501208131814281538135
:1008D00084E090E00AC0F501808191819C01442769
:1008E00037FD4095542F82E090E0A80EB91E9FE698
:1008F000F92257FF09C050954095309521953F4FFB
:100900004F4F5F4FE0E8FE2ACA01B901A1012AE07A
:1009100030E009D1D82ED2183FC0953729F41F2DC9
:100920001F7E2AE030E01DC01F2D197F9F3661F029
:10093000903720F4983509F0A5C00FC0903739F0F2
:10094000983709F09FC004C028E030E00AC0106169
:1009500014FD146020E130E004C014FD166020E1B5
:1009600032E017FF08C0F5016081718182819381B7
:1009700044E050E008C0F50180819181BC0180E035
:1009800090E042E050E0A40EB51EA101CCD0D82EDC
:10099000D2188FE7F82EF122F6FE0BC05EEFF5229B
:1009A000D91438F4F4FE07C0F2FC05C08FEEF8222B
:1009B00002C01D2D01C0192DF4FE0DC0FE01ED0D6C
:1009C000F11D8081803319F499EEF92208C01F5F70
:1009D000F2FE05C003C08F2D867809F01F5F0F2D32
:1009E000F3FC13C0F0FE0EC01E1510F09D2C0AC0C3
:1009F0009D2C9E0C911A1E2D05C080E290E0B30143
:100A000066D01F5F1E15C8F304C01E1510F4E11A4E
:100A100001C0EE2404FF0EC080E390E0B30157D084
:100A200002FF1BC001FD03C088E790E00EC088E50F
:100A300090E00BC0802F867881F001FF02C08BE22E
:100A400001C080E2F7FC8DE290E0B30140D005C028
:100A500080E390E0B3013BD09A94D914C8F3DA94C0
:100A6000F101ED0DF11D808190E0B30130D0DD206A
:100A7000B1F705C080E290E0B30129D0EA94EE20FE
:100A8000C9F750CEF30166817781CB012B96E2E165
:100A9000C4C0E199FECF9FBB8EBBE09A99278DB36E
:100AA0000895FC010590615070400110D8F78095C1
:100AB00090958E0F9F1F0895FC016150704001902A
:100AC0000110D8F7809590958E0F9F1F08950F9372
:100AD0001F93CF93DF938C01EB018B8181FF1BC0B0
:100AE00082FF0DC02E813F818C819D81281739079F
:100AF00064F4E881F9810193F983E88306C0E8850D
:100B0000F985802F0995892B31F48E819F8101967B
:100B10009F838E8302C00FEF1FEFC801DF91CF913B
:100B20001F910F910895FA01AA27283051F1203121
:100B300081F1E8946F936E7F6E5F7F4F8F4F9F4F71
:100B4000AF4FB1E03ED0B4E03CD0670F781F891FB3
:100B50009A1FA11D680F791F8A1F911DA11D6A0F81
:100B6000711D811D911DA11D20D009F468943F9134
:100B70002AE0269F11243019305D3193DEF6CF0133
:100B80000895462F4770405D4193B3E00FD0C9F7F9
:100B9000F6CF462F4F70405D4A3318F0495D31FD66
:100BA0004052419302D0A9F7EACFB4E0A6959795B9
:100BB000879577956795BA95C9F70097610571058F
:100BC00008959B01AC010A2E0694579547953795D9
:100BD0002795BA95C9F7620F731F841F951FA01D33
:100BE00008952F923F924F925F926F927F928F92D1
:100BF0009F92AF92BF92CF92DF92EF92FF920F93AC
:100C00001F93CF93DF93CDB7DEB7CA1BDB0B0FB6B5
:100C1000F894DEBF0FBECDBF09942A883988488872
:100C20005F846E847D848C849B84AA84B984C88408
:100C3000DF80EE80FD800C811B81AA81B981CE0FFF
:100C4000D11D0FB6F894DEBF0FBECDBFED010895E4
:040C5000F894FFCF46
:100C5400636F6465203D2064656661756C74203D36
:100C64002061626364656600636F6465203D2025CE
:100C740063256325632563256325630A0053746133
:100C84007274000A73656E736F72202564000A4CD7
:100C94003120256400726620000A0101010101016E
:100CA400010A42616420436F6D6D616E640A2D3EDA
:100CB40020000000000200000000290200000000E3
:00000001FF
