:1000000012C02CC02BC02AC029C028C027C026C0BF
:1000100025C024C023C0F6C521C020C01FC01EC0FB
:100020001DC01CC01BC011241FBECFE5D4E0DEBF25
:10003000CDBF11E0A0E6B0E0E0EFF2E102C0059034
:100040000D92AA36B107D9F711E0AAE6B1E001C0D6
:100050001D92AE39B107E1F7E0D048C9D1CF85E0B4
:1000600087BB8CEF81BBC2988FE385BB84E088BBE4
:10007000909A0895EF92FF920F931F93CF93DF937F
:100080007C01162F00D080E690E0EDB7FEB792839A
:10009000818325D6C12FD0E00F900F90C701BE01FC
:1000A00034D58AE090E02DD610E020E030E09AE0F0
:1000B0000BC0199F802D1124F701E20FF31F10814F
:1000C0001053180F2F5F3F4F2C173D0794F3012F4C
:1000D00000D000D088E690E0EDB7FEB79283818330
:1000E00013831482FCD50F900F900F900F9017FF81
:1000F00002C0929A01C0929806FF02C0939A01C072
:10010000939805FF02C0949A01C0949804FF02C01E
:10011000959A01C0959803FF02C0969A01C09698DF
:1001200002FF02C0979A01C09798DF91CF911F916B
:100130000F91FF90EF9008950F931F93CF93DF934C
:1001400080914301C0E0D0E0082F10E0CE01800F85
:10015000911FE0D7FE01E659FE4F80832196C630FD
:10016000D105A1F71092700120916A012F3FF1F49F
:1001700080916B018F3FD1F480916C018F3FB1F47E
:1001800081E680936A0182E680936B0183E6809327
:100190006C0184E680936D0185E680936E0186E6AE
:1001A00080936F018CE690E0B2D532C08DB79EB7D8
:1001B0000E970FB6F8949EBF0FBE8DBFEDB7FEB77A
:1001C000319684E890E0ADB7BEB712969C938E93BB
:1001D00011972283138280916B0184831582809111
:1001E0006C018683178280916D01808711868091D2
:1001F0006E018287138680916F01848715866FD583
:100200008DB79EB70E960FB6F8949EBF0FBE8DBFEA
:10021000DF91CF911F910F9108952F923F924F92AE
:100220005F926F927F928F929F92AF92BF92CF9286
:10023000DF92EF92FF920F931F93DF93CF93CDB78F
:10024000DEB72F970FB6F894DEBF0FBECDBF07DF26
:100250004CD4C29889E990E05AD5C29A6DDF83B335
:1002600081708093440183B382708093450183B38E
:1002700084708093460183B388708093470183B371
:1002800080718093480183B38072809349016E012D
:100290000894C11CD11C51E7A52E51E0B52E4FE9A1
:1002A000842E40E0942E38ECE32EF12C2BE3622ECA
:1002B00021E0722E97E3492E91E0592E83E3282EF8
:1002C00081E0382EC6016FE080D3182F809987C057
:1002D000C2988823B9F3809177018823B1F489818A
:1002E000809371018A81809372018B818093730165
:1002F0008C81809374018D81809375018E818093B0
:10030000760181E080937701DDCF8A2D90E066E071
:1003100070E0A60126E030E01CD48F5F9F4F31F0E3
:10032000809177018F5F8093770102C010927701EF
:1003300080917701833031F600E010E08091430135
:10034000F601E00FF11FD801A80FB11DCD016081AA
:10035000E9D60F5F1F4F0630110581F7109270012B
:10036000C29AEDB7FEB73E970FB6F894FEBF0FBE28
:10037000EDBF3196ADB7BEB712969C928E92119793
:100380008981828313828A81848315828B8186830B
:1003900017828C81808711868D81828713868E815A
:1003A000848715869CD4EDB7FEB73E960FB6F894B9
:1003B000FEBF0FBEEDBF88EB90E0A9D4C29888EED7
:1003C00093E0F7013197F1F70197D9F7C29A80E1ED
:1003D00097E2F7013197F1F70197D9F773CF8823A7
:1003E00009F473C1C29800D0E1EDF0E0ADB7BEB73B
:1003F0001296FC93EE93119772D40F900F90C60152
:10040000612F70E082D38DE090E07BD48AE691E0AA
:1004100066E070E0A60127E030E09BD38F5F9F4F3E
:1004200009F452C18F81813391F492B382B38095E4
:1004300084709B7F892B82BB86ED90E068D484EF2B
:1004400091E0F7013197F1F70197D9F73DC1823378
:1004500091F492B382B380958870977F892B82BB89
:1004600089ED90E054D484EF91E0F7013197F1F7F2
:100470000197D9F729C1833391F492B382B3809560
:1004800080719F7E892B82BB8CED90E040D484EFFD
:1004900091E0F7013197F1F70197D9F715C184334E
:1004A00091F492B382B3809580729F7D892B82BB39
:1004B0008FED90E02CD484EF91E0F7013197F1F7C4
:1004C0000197D9F701C1853391F492B382B3809536
:1004D00080749F7B892B82BB82EE90E018D484EFDE
:1004E00091E0F7013197F1F70197D9F7EDC0863325
:1004F00091F492B382B3809580789F77892B82BBE9
:1005000085EE90E004D484EF91E0F7013197F1F7A4
:100510000197D9F7D9C0813661F4929888EE90E0BE
:10052000F6D384EF91E0F7013197F1F70197D9F70E
:10053000CBC0823661F493988CEE90E0E8D384EFE0
:1005400091E0F7013197F1F70197D9F7BDC08336F4
:1005500061F4949880EF90E0DAD384EF91E0F701B2
:100560003197F1F70197D9F7AFC0843661F49598C8
:1005700084EF90E0CCD384EF91E0F7013197F1F76D
:100580000197D9F7A1C0853661F4969888EF90E07D
:10059000BED384EF91E0F7013197F1F70197D9F7D6
:1005A00093C0863661F497988CEF90E0B0D384EFD7
:1005B00091E0F7013197F1F70197D9F785C08134C0
:1005C00061F4929A80E091E0A2D384EF91E0F70188
:1005D0003197F1F70197D9F777C0823461F4939A94
:1005E00084E091E094D384EF91E0F7013197F1F743
:1005F0000197D9F769C0833461F4949A88E091E057
:1006000086D384EF91E0F7013197F1F70197D9F79D
:100610005BC0843461F4959A8CE091E078D384EFE8
:1006200091E0F7013197F1F70197D9F74DC0853483
:1006300061F4969A80E191E06AD384EF91E0F7014A
:100640003197F1F70197D9F73FC0863461F4979A53
:1006500084E191E05CD384EF91E0F7013197F1F709
:100660000197D9F731C0803389F488E191E04FD305
:1006700092989398949895989698979884EF91E08B
:10068000F7013197F1F70197D9F712C08933A9F42F
:100690008EE191E03CD3929A939A949A959A969A85
:1006A000979A84EF91E0F7013197F1F70197D9F725
:1006B00083B382708093450107C08D3229F41750AF
:1006C000CE010896612FD6DCC29A989B04C0809117
:1006D0004401882331F098992DC0809144018823EA
:1006E00049F1C29888EE93E0F7013197F1F701974D
:1006F000D9F700D000D0EDB7FEB7319624E231E053
:10070000ADB7BEB712963C932E93119780914401DA
:1007100082831382E4D283B381708093440192B3C5
:1007200082B3809584709B7F892B82BB0F900F9042
:100730000F900F90999B04C080914501882331F060
:10074000999923C0809145018823F9F0C29888EED9
:1007500093E0F7013197F1F70197D9F700D0EBE279
:10076000F1E0ADB7BEB71296FC93EE931197B7D2F6
:1007700083B382708093450192B382B38095887071
:10078000977F892B82BB0F900F909A9B04C080911A
:100790004601882331F09A9923C08091460188232D
:1007A000F9F0C29888EE93E0F7013197F1F70197DD
:1007B000D9F700D0EFE2F1E0ADB7BEB71296FC93E7
:1007C000EE9311978CD283B384708093460192B3D9
:1007D00082B3809580719F7E892B82BB0F900F9092
:1007E0009B9B04C080914701882331F09B9921C0D5
:1007F000809147018823E9F0C29888EE93E0F701E1
:100800003197F1F70197D9F700D0ADB7BEB712967F
:100810003C922E92119763D283B3887080934701E4
:1008200092B382B3809580729F7D892B82BB0F909B
:100830000F909C9B04C080914801882331F09C99C3
:100840001FC0809148018823D9F0C29888EE93E0B8
:10085000F7013197F1F70197D9F700D0EDB7FEB75F
:10086000528241823CD283B380718093480192B31B
:1008700082B3809580749F7B892B82BB0F900F90F1
:100880009D9B04C080914901882331F09D9921C02E
:10089000809149018823E9F0C29888EE93E0F7013E
:1008A0003197F1F70197D9F700D0ADB7BEB71296DF
:1008B0007C926E92119713D282B392B390959078F6
:1008C0008F77982B92BB83B38072809349010F90EE
:1008D0000F90C29AF7CC0F931F93CF93DF93EC0145
:1008E000162F072F8FE391E063E070E0AE01212F18
:1008F000302F2FD18F5F9F4F79F08FE391E063E02E
:1009000070E0AE01212F302F24D11350181B039615
:100910008C0F9D1F612FBFD080E090E0DF91CF91C1
:100920001F910F910895B19B18C086B380E090E0AD
:1009300026E232E0F9013197F1F7B19B05C001964B
:1009400083329105B9F709C08D31910530F04F9789
:1009500020F4B19BFECF81E0089580E0089540E04F
:1009600027E030E0ECE4F4E061E070E0CF010197D3
:10097000F1F7B19B0AC0B199FECFCB01022E02C0A4
:10098000880F991F0A94E2F7482BB19BFECF2150A4
:1009900030408FEF2F3F380749F7842F08950F938A
:1009A0001F93CF93DF93062FEC0110E005C0D7DF34
:1009B00089938D3019F01F5F1017C8F3812F90E0D5
:1009C000DF91CF911F910F9108951F93CF93DF93E4
:1009D000EC01162FA8DF882319F420E030E004C0D2
:1009E000CE01612FDCDF9C01C901DF91CF911F9106
:1009F0000895882349F0C09A82E796E00197F1F7BD
:100A0000C09886E292E008C0C09A86E292E0019720
:100A1000F1F7C09882E796E00197F1F70895C09A40
:100A200084E790E40197F1F7C09886E292E001979D
:100A3000F1F70895FF920F931F93CF93DF93F82E52
:100A4000C0E0D0E000E810E0C8010C2E02C095958F
:100A500087950A94E2F78F21CCDF2196C830D10523
:100A600099F7DF91CF911F910F91FF9008950F9308
:100A70001F93CF93DF93062FEC0110E003C0899101
:100A8000D9DF1F5F1017D8F38DE0D4DFDF91CF914E
:100A90001F910F910895DF92EF92FF920F931F9392
:100AA0008C01D62EBCDFC8016D2DE1DF82E3E82E7C
:100AB0008BE4F82EC7010197F1F7B1DFC8016D2D66
:100AC000D6DFC7010197F1F71F910F91FF90EF90CB
:100AD000DF9008951F93182F8A3011F48DE0FADF0C
:100AE0005D9BFECF1CB91F91089510BC83E389B9AB
:100AF0001BB886E880BD88E98AB98BE591E09093C0
:100B00009B0180939A0178940895EF92FF920F933E
:100B10001F93CF93DF937C018B01C0E0D0E006C030
:100B2000F701EC0FFD1F8081D5DF2196C017D1079B
:100B3000BCF3DF91CF911F910F91FF90EF9008953B
:100B40000895E8E7F1E0119281E0E639F807D9F776
:100B500008958F929F92AF92BF92CF92DF92EF92C1
:100B6000FF920F931F93CF93DF934C01EB015A0138
:100B7000690140E050E07B010894E11CF11C8B010D
:100B80000150104016C0D401A20FB31FF501E20FAF
:100B9000F31FE40FF51F9C91808198139701201794
:100BA000310781F02F5F3F4FC217D30760F74F5FC8
:100BB0005F4FBA01C416D50618F020E030E0F4CF3C
:100BC0006FEF7FEFCB01DF91CF911F910F91FF90DE
:100BD000EF90DF90CF90BF90AF909F908F9008954F
:100BE000FC01ABE7B1E007C08D913196981719F081
:100BF00020E030E005C090819923B1F721E030E09A
:100C0000C90108951F920F920FB60F9211242F93CE
:100C10003F934F935F936F937F938F939F93AF9384
:100C2000BF93EF93FF9360919601709197018CB100
:100C3000FB01E858FE4F83838D30F9F48BE791E098
:100C40004ADE892B59F000D08AE491E0EDB7FEB777
:100C50009283818344D00F900F9003C08AE090E08C
:100C600050D01092970110929601E8E7F1E01192AE
:100C700081E0E639F807D9F70DC02CDF80919601A5
:100C80009091970101966DE170E015D090939701D6
:100C900080939601FF91EF91BF91AF919F918F91BA
:100CA0007F916F915F914F913F912F910F900FBE68
:100CB0000F901F901895AA1BBB1B51E107C0AA1FDC
:100CC000BB1FA617B70710F0A61BB70B881F991FED
:100CD0005A95A9F780959095BC01CD010895A0E0A3
:100CE000B0E0E4E7F6E0DBC2FE0135966191719178
:100CF00080919A0190919B01AF013ED02096E2E055
:100D0000EAC260919A0170919B012FD208950F93CE
:100D10001F93CF93DF938C01E0919A01F0919B0197
:100D2000838181FF21C0C0E0D0E00DC0E0919A0135
:100D3000F0919B0120853185BF01F9010995892B2F
:100D400011F0CFEFDFEFF80181918F01882371F768
:100D5000E0919A01F0919B01208531858AE0BF01E5
:100D6000F9010995892B11F0CFEFDFEFCE01DF916B
:100D7000CF911F910F910895ABE0B0E0E1ECF6E068
:100D80007EC23C012B015A01FC011782168283812D
:100D900081FD03C06FEF7FEFB9C19AE0892E1E017C
:100DA0000894211C311CF3012381F20123FD85915C
:100DB00023FF81912F01882309F4A5C1853239F4DD
:100DC00023FD859123FF81912F01853221F490E04D
:100DD000B301CBD1E8CF982FFF24EE249924FFE173
:100DE000FF15D0F09B3269F09C3228F4903259F014
:100DF000933291F40EC09D3249F0903369F441E092
:100E000024C052E0F52A84E0F82A28C098E0F92AA4
:100E100025C0E0E1FE2A22C0F7FC29C0892F8053BB
:100E20008A3070F4F6FE05C0989C902C1124980E20
:100E300015C0E89CE02C1124E80EF0E2FF2A0EC059
:100E40009E3229F4F6FC5FC140E4F42A07C09C36C8
:100E500019F450E8F52A02C0983649F4F20123FD4E
:100E6000959123FF91912F01992309F0B8CF892FF4
:100E70008554833018F08052833038F444E050E0D9
:100E8000A40EB51E5FE359830FC0933631F093373C
:100E900079F0933509F052C01FC0F5018081898334
:100EA00042E050E0A40EB51E610101E010E011C067
:100EB000F501C080D180F6FC03C06FEF7FEF02C068
:100EC000692D70E042E050E0A40EB51EC60142D18B
:100ED0008C015FE7F52213C0F501C080D180F6FCDC
:100EE00003C06FEF7FEF02C0692D70E042E050E079
:100EF000A40EB51EC60123D18C0150E8F52AF3FEDD
:100F000006C018C080E290E0B3012FD1EA948E2D84
:100F100090E008171907B0F30DC0F601F7FC8591B2
:100F2000F7FE81916F0190E0B3011FD1E110EA94C7
:100F3000015010400115110581F7E2C0943611F0FF
:100F4000993661F5F7FE08C0F501208131814281B3
:100F5000538184E090E00AC0F501808191819C0179
:100F6000442737FD4095542F82E090E0A80EB91E2B
:100F70009FE6F92257FF09C050954095309521957D
:100F80003F4F4F4F5F4FE0E8FE2ACA01B901A10170
:100F90002AE030E016D1D82ED2183FC0953729F478
:100FA0001F2D1F7E2AE030E01DC01F2D197F9F36A8
:100FB00061F0903720F4983509F0A5C00FC0903744
:100FC00039F0983709F09FC004C028E030E00AC02B
:100FD000106114FD146020E130E004C014FD1660BF
:100FE00020E132E017FF08C0F50160817181828144
:100FF000938144E050E008C0F50180819181BC01FB
:1010000080E090E042E050E0A40EB51EA101D9D0EE
:10101000D82ED2188FE7F82EF122F6FE0BC05EEF25
:10102000F522D91438F4F4FE07C0F2FC05C08FEEA7
:10103000F82202C01D2D01C0192DF4FE0DC0FE01C5
:10104000ED0DF11D8081803319F499EEF92208C06D
:101050001F5FF2FE05C003C08F2D867809F01F5F69
:101060000F2DF3FC13C0F0FE0EC01E1510F09D2CCA
:101070000AC09D2C9E0C911A1E2D05C080E290E0A6
:10108000B30173D01F5F1E15C8F304C01E1510F402
:10109000E11A01C0EE2404FF0EC080E390E0B3012A
:1010A00064D002FF1BC001FD03C088E790E00EC0C2
:1010B00088E590E00BC0802F867881F001FF02C0A8
:1010C0008BE201C080E2F7FC8DE290E0B3014DD0ED
:1010D00005C080E390E0B30148D09A94D914C8F3D6
:1010E000DA94F101ED0DF11D808190E0B3013DD066
:1010F000DD20B1F705C080E290E0B30136D0EA947C
:10110000EE20C9F750CEF30166817781CB012B9693
:10111000E2E1D1C0E199FECF9FBB8EBBE09A992757
:101120008DB30895262FE199FECF9FBB8EBB2DBBBB
:101130000FB6F894E29AE19A0FBE01960895FC0169
:101140000590615070400110D8F7809590958E0FF2
:101150009F1F0895FC016150704001900110D8F765
:10116000809590958E0F9F1F08950F931F93CF9397
:10117000DF938C01EB018B8181FF1BC082FF0DC0CF
:101180002E813F818C819D812817390764F4E88185
:10119000F9810193F983E88306C0E885F985802FFA
:1011A0000995892B31F48E819F8101969F838E83CF
:1011B00002C00FEF1FEFC801DF91CF911F910F9178
:1011C0000895FA01AA27283051F1203181F1E894DD
:1011D0006F936E7F6E5F7F4F8F4F9F4FAF4FB1E02A
:1011E0003ED0B4E03CD0670F781F891F9A1FA11D25
:1011F000680F791F8A1F911DA11D6A0F711D811D26
:10120000911DA11D20D009F468943F912AE0269FEA
:1012100011243019305D3193DEF6CF010895462F49
:101220004770405D4193B3E00FD0C9F7F6CF462F2A
:101230004F70405D4A3318F0495D31FD4052419393
:1012400002D0A9F7EACFB4E0A69597958795779550
:101250006795BA95C9F700976105710508959B01D7
:10126000AC010A2E06945795479537952795BA9560
:10127000C9F7620F731F841F951FA01D08952F9239
:101280003F924F925F926F927F928F929F92AF9216
:10129000BF92CF92DF92EF92FF920F931F93CF9363
:1012A000DF93CDB7DEB7CA1BDB0B0FB6F894DEBFFA
:1012B0000FBECDBF09942A88398848885F846E8420
:1012C0007D848C849B84AA84B984C884DF80EE806A
:1012D000FD800C811B81AA81B981CE0FD11D0FB673
:1012E000F894DEBF0FBECDBFED010895F894FFCF97
:1012F0007363656E653A200025640A00636F646558
:10130000203D2064656661756C74203D20616263D8
:1013100064656600636F6465203D20256325632551
:10132000632563256325630A005374617274006E3C
:10133000657720636F6465203D2025632563256301
:101340002563256325630A00726573657420746FD5
:10135000206170706C79206368616E676573737368
:10136000006D736720004C31004C32004C33004C50
:1013700034004C35004C36004C3130004C323000DB
:101380004C3330004C3430004C3530004C3630009B
:101390004C3131004C3231004C3331004C3431008F
:1013A0004C3531004C363100414C4C2D3000414C15
:1013B0004C2D31000A4C31202575000A4C32000AB0
:1013C0004C33000A4C34000A4C35000A4C3600728B
:1013D0006620000A0101010101010A426164204303
:1013E0006F6D6D616E640A2D3E20000000000200EA
:0A13F0000000006A05000000000084
:00000001FF
