:1000000012C02CC02BC02AC029C028C027C026C0BF
:1000100025C024C023C0CFC421C020C01FC01EC023
:100020001DC01CC01BC011241FBECFE5D4E0DEBF25
:10003000CDBF11E0A0E6B0E0E8ECF0E102C0059031
:100040000D92A033B107D9F711E0A0E3B1E001C0F0
:100050001D92A338B107E1F7B0D034C8D1CF85E005
:1000600087BB8CEF81BB88EF82BBC2988FE385BBD7
:1000700084E088BB909A08950F931F93CF93DF93EA
:1000800080910801C0E0D0E0082F10E0CE01800F81
:10009000911F2CD7FE01E15BFE4F80832196C63075
:1000A000D105A1F71092550120914F012F3FF1F496
:1000B000809150018F3FD1F4809151018F3FB1F475
:1000C00081E680934F0182E68093500183E680931E
:1000D000510184E68093520185E68093530186E6C0
:1000E0008093540180E690E0FED433C08DB79EB774
:1000F0000E970FB6F8949EBF0FBE8DBFEDB7FEB73B
:10010000319688E790E0ADB7BEB712969C938E9378
:1001100011972283138280915001848315828091EC
:1001200051018683178280915201808711868091C8
:100130005301828713868091540184871586BBD42E
:100140002DB73EB7225F3F4F0FB6F8943EBF0FBEAC
:100150002DBFC0E0D0E0CE0166E070E099D48C0104
:1001600080910901DE01A80FB11DCD01BFD6282F56
:10017000CE0166E070E08CD4FB01EE0FFF1FE60FAE
:10018000F71FEE0FFF1FE00FF11FEF5CFE4F208304
:10019000822F90E0A2D40530110519F480E290E09E
:1001A0009CD42196CE31D105B1F68AE090E095D469
:1001B000DF91CF911F910F9108956F927F928F924F
:1001C0009F92AF92BF92CF92DF92EF92FF920F93E6
:1001D0001F93DF93CF93CDB7DEB72F970FB6F89469
:1001E000DEBF0FBECDBF3BDF59D3C29892988DE8DA
:1001F00090E079D4C29A929A939810920B013CDFC6
:100200005E010894A11CB11C43E9842E40E0942EA9
:1002100038ECC32ED12C23ED622E20E0722E92B347
:1002200080910B01880F880F880F977F892B82BBE5
:10023000C5016FE0A3D2F82E80998DC0C2988823A3
:1002400009F451C180915C018823B1F489818093C4
:1002500056018A81809357018B81809358018C814C
:10026000809359018D8180935A018E8180935B0127
:1002700081E080935C0137C186E591E066E070E043
:10028000A50126E030E03ED38F5F9F4F31F0809193
:100290005C018F5F80935C0102C010925C018091D1
:1002A0005C01833009F01FC100E010E0809108017B
:1002B000F501E00FF11FD801A80FB11DCD0160813C
:1002C0001DD60F5F1F4F0630110581F710925501A3
:1002D000C29A2DB73EB72E5030400FB6F8943EBFAD
:1002E0000FBE2DBFEDB7FEB73196ADB7BEB71296B4
:1002F0009C928E9211978981828313828A81848352
:1003000015828B81868317828C81808711868D81EF
:10031000828713868E8184871586CDD32DB73EB70D
:10032000225F3F4F0FB6F8943EBF0FBE2DBF8CEA41
:1003300090E0D9D3C29888EE93E0F6013197F1F7B7
:100340000197D9F7C29A80E197E2F6013197F1F768
:100350000197D9F7C8C0882309F4BDC0C298C50168
:1003600067E070E0ABD28AE090E0B7D38FE491E031
:1003700066E070E0A50127E030E0C4D28F5F9F4FB8
:1003800021F18F81813391F480910B01882321F435
:1003900081E080930B0102C010920B0184EF91E089
:1003A000F6013197F1F70197D9F70FC0813681F443
:1003B00085EC90E098D381E080930B0184EF91E08D
:1003C000F6013197F1F70197D9F701E311E047C042
:1003D000813469F489EC90E086D310920B0184EFAC
:1003E00091E0F6013197F1F70197D9F7EECF80331D
:1003F00061F48DEC90E077D3929A84EF91E0F6016E
:100400003197F1F70197D9F7E0CF8933F1F6809171
:100410000B018823D1F620E030E092B382B38095BF
:1004200084709B7F892B82BB88EE93E0F601319725
:10043000F1F70197D9F792B382B3809584709B7FCF
:10044000892B82BB88EE93E0F6013197F1F7019793
:10045000D9F72F5F3F4F2A303105F9F6B6CFC801E3
:1004600066E070E0A50127E030E04CD28F5F9F4F3F
:1004700051F18F81893339F580910B01882319F56A
:1004800020E030E092B382B3809584709B7F892B0B
:1004900082BB88EE93E0F6013197F1F70197D9F727
:1004A00092B382B3809584709B7F892B82BB88EE48
:1004B00093E0F6013197F1F70197D9F72F5F3F4F9E
:1004C0002A303105F9F60A5F1F4FB1E00F341B07E0
:1004D00009F0C5CFC29A98B380910A01880F880F9E
:1004E0009B7F892B88BB80910A01882309F088C0F3
:1004F000FF2009F485C080915C018823B1F48981D3
:10050000809356018A81809357018B818093580193
:100510008C81809359018D8180935A018E818093C3
:100520005B0181E080935C016BC086E591E066E051
:1005300070E0A50126E030E0E5D18F5F9F4F31F0FC
:1005400080915C018F5F80935C0102C010925C011E
:1005500080915C01833009F053C08091300126E026
:10056000829FC001112420910901280F00E010E0B2
:10057000E22EFF24F501E00FF11FC8018E0D9F1D33
:100580006081BCD40F5F1F4F0630110599F78DB7FE
:100590009EB740970FB6F8949EBF0FBE8DBFEDB7C4
:1005A000FEB73196ADB7BEB712967C926E92119798
:1005B00080913001828313828981848315828A81AC
:1005C000868317828B81808711868C818287138630
:1005D0008D81848715868E81868717866CD22DB78C
:1005E0003EB7205F3F4F0FB6F8943EBF0FBE2DBF02
:1005F0008DEE90E078D21092550181E080930A014F
:1006000098993EC080910A01813009F039C088E88C
:1006100093E1F6013197F1F70197D9F7989B0BC059
:1006200080910B01882321F481E080930B0128C085
:1006300010920B0125C010920A018091300190E0C8
:1006400040E050E014C0C29828EE33E0F601319744
:10065000F1F721503040D1F7C29A28EE33E0F6018D
:100660003197F1F721503040D1F74F5F5F4F481776
:1006700059074CF3019665E070E00AD2809330018F
:10068000989BCDCD81E080930A01C9CD0F931F9334
:10069000CF93DF93EC01162F072F84E091E063E006
:1006A00070E0AE01212F302F2DD18F5F9F4F79F059
:1006B00084E091E063E070E0AE01212F302F22D181
:1006C0001350181B03968C0F9D1F612FBDD0DF9117
:1006D000CF911F910F910895B19B18C086B380E010
:1006E00090E026E232E0F9013197F1F7B19B05C0C5
:1006F000019683329105B9F709C08D31910530F02B
:100700004F9720F4B19BFECF81E0089580E00895DB
:1007100040E027E030E0ECE4F4E061E070E0CF019D
:100720000197F1F7B19B0AC0B199FECFCB01022E20
:1007300002C0880F991F0A94E2F7482BB19BFECFA5
:10074000215030408FEF2F3F380749F7842F08950D
:100750000F931F93CF93DF93062FEC0110E005C09A
:10076000D7DF89938D3019F01F5F1017C8F3812FE1
:1007700090E0DF91CF911F910F9108951F93CF9338
:10078000DF93EC01162FA8DF882319F420E030E076
:1007900004C0CE01612FDCDF9C01C901DF91CF9144
:1007A0001F910895882349F0C09A82E796E0019747
:1007B000F1F7C09886E292E008C0C09A86E292E023
:1007C0000197F1F7C09882E796E00197F1F7089555
:1007D000C09A84E790E40197F1F7C09886E292E02E
:1007E0000197F1F70895FF920F931F93CF93DF9333
:1007F000F82EC0E0D0E000E810E0C8010C2E02C0E6
:10080000959587950A94E2F78F21CCDF2196C83021
:10081000D10599F7DF91CF911F910F91FF90089526
:100820000F931F93CF93DF93062FEC0110E003C0CB
:100830008991D9DF1F5F1017D8F38DE0D4DFDF91E6
:10084000CF911F910F910895DF92EF92FF920F9336
:100850001F938C01D62EBCDFC8016D2DE1DF82E332
:10086000E82E8BE4F82EC7010197F1F7B1DFC8013C
:100870006D2DD6DFC7010197F1F71F910F91FF9002
:10088000EF90DF9008951F93182F8A3011F48DE0B8
:10089000FADF5D9BFECF1CB91F91089510BC83E366
:1008A00089B91BB886E880BD88E98AB982E291E0FF
:1008B0009093800180937F0178940895EF92FF9246
:1008C0000F931F93CF93DF937C018B01C0E0D0E0A7
:1008D00006C0F701EC0FFD1F8081D5DF2196C01700
:1008E000D107BCF3DF91CF911F910F91FF90EF9053
:1008F00008950895EDE5F1E0119281E0EB37F807F6
:10090000D9F708958F929F92AF92BF92CF92DF92C4
:10091000EF92FF920F931F93CF93DF934C01EB0164
:100920005A01690140E050E07B010894E11CF11C90
:100930008B010150104016C0D401A20FB31FF50166
:10094000E20FF31FE40FF51F9C918081981397012C
:100950002017310781F02F5F3F4FC217D30760F791
:100960004F5F5F4FBA01C416D50618F020E030E0A3
:10097000F4CF6FEF7FEFCB01DF91CF911F910F91FC
:10098000FF90EF90DF90CF90BF90AF909F908F90AF
:100990000895FC01A0E6B1E007C08D91319698174B
:1009A00019F020E030E005C090819923B1F721E0F3
:1009B00030E0C90108951F920F920FB60F921124D3
:1009C0002F933F934F935F936F937F938F939F9357
:1009D000AF93BF93EF93FF9360917B0170917C0184
:1009E0008CB1FB01E35AFE4F83838D30F9F480E62E
:1009F00091E04CDE892B59F000D081E191E0EDB718
:100A0000FEB79283818357D00F900F9003C08AE086
:100A100090E063D010927C0110927B01EDE5F1E053
:100A2000119281E0EB37F807D9F70DC02CDF8091E8
:100A30007B0190917C0101966DE170E015D090935F
:100A40007C0180937B01FF91EF91BF91AF919F91CA
:100A50008F917F916F915F914F913F912F910F9067
:100A60000FBE0F901F901895AA1BBB1B51E107C02A
:100A7000AA1FBB1FA617B70710F0A61BB70B881F2E
:100A8000991F5A95A9F780959095BC01CD010895BD
:100A900097FB092E07260AD077FD04D0E5DF06D0A4
:100AA00000201AF4709561957F4F0895F6F79095A0
:100AB00081959F4F0895A0E0B0E0E0E6F5E0DBC24D
:100AC000FE0135966191719180917F019091800135
:100AD000AF013ED02096E2E0EAC260917F017091C2
:100AE00080012FD208950F931F93CF93DF938C0132
:100AF000E0917F01F0918001838181FF21C0C0E0FE
:100B0000D0E00DC0E0917F01F0918001208531851A
:100B1000BF01F9010995892B11F0CFEFDFEFF80143
:100B200081918F01882371F7E0917F01F09180011D
:100B3000208531858AE0BF01F9010995892B11F0E3
:100B4000CFEFDFEFCE01DF91CF911F910F9108958D
:100B5000ABE0B0E0EDEAF5E07EC23C012B015A01CA
:100B6000FC0117821682838181FD03C06FEF7FEF46
:100B7000B9C19AE0892E1E010894211C311CF30191
:100B80002381F20123FD859123FF81912F01882389
:100B900009F4A5C1853239F423FD859123FF8191A4
:100BA0002F01853221F490E0B301CBD1E8CF982F0B
:100BB000FF24EE249924FFE1FF15D0F09B3269F069
:100BC0009C3228F4903259F0933291F40EC09D3249
:100BD00049F0903369F441E024C052E0F52A84E002
:100BE000F82A28C098E0F92A25C0E0E1FE2A22C0B0
:100BF000F7FC29C0892F80538A3070F4F6FE05C0B7
:100C0000989C902C1124980E15C0E89CE02C11247F
:100C1000E80EF0E2FF2A0EC09E3229F4F6FC5FC116
:100C200040E4F42A07C09C3619F450E8F52A02C0C3
:100C3000983649F4F20123FD959123FF91912F01FC
:100C4000992309F0B8CF892F8554833018F080524A
:100C5000833038F444E050E0A40EB51E5FE35983BE
:100C60000FC0933631F0933779F0933509F052C0C5
:100C70001FC0F5018081898342E050E0A40EB51EBB
:100C8000610101E010E011C0F501C080D180F6FCE7
:100C900003C06FEF7FEF02C0692D70E042E050E0CB
:100CA000A40EB51EC60142D18C015FE7F52213C028
:100CB000F501C080D180F6FC03C06FEF7FEF02C06A
:100CC000692D70E042E050E0A40EB51EC60123D1AC
:100CD0008C0150E8F52AF3FE06C018C080E290E0CF
:100CE000B3012FD1EA948E2D90E008171907B0F3C5
:100CF0000DC0F601F7FC8591F7FE81916F0190E040
:100D0000B3011FD1E110EA94015010400115110503
:100D100081F7E2C0943611F0993661F5F7FE08C00C
:100D2000F501208131814281538184E090E00AC045
:100D3000F501808191819C01442737FD4095542F16
:100D400082E090E0A80EB91E9FE6F92257FF09C085
:100D500050954095309521953F4F4F4F5F4FE0E8BC
:100D6000FE2ACA01B901A1012AE030E016D1D82E2D
:100D7000D2183FC0953729F41F2D1F7E2AE030E09E
:100D80001DC01F2D197F9F3661F0903720F49835D4
:100D900009F0A5C00FC0903739F0983709F09FC00F
:100DA00004C028E030E00AC0106114FD146020E1A6
:100DB00030E004C014FD166020E132E017FF08C0E7
:100DC000F501608171818281938144E050E008C027
:100DD000F50180819181BC0180E090E042E050E02B
:100DE000A40EB51EA101D9D0D82ED2188FE7F82EA7
:100DF000F122F6FE0BC05EEFF522D91438F4F4FEB2
:100E000007C0F2FC05C08FEEF82202C01D2D01C004
:100E1000192DF4FE0DC0FE01ED0DF11D8081803312
:100E200019F499EEF92208C01F5FF2FE05C003C055
:100E30008F2D867809F01F5F0F2DF3FC13C0F0FE95
:100E40000EC01E1510F09D2C0AC09D2C9E0C911AF0
:100E50001E2D05C080E290E0B30173D01F5F1E1508
:100E6000C8F304C01E1510F4E11A01C0EE2404FFFB
:100E70000EC080E390E0B30164D002FF1BC001FD0F
:100E800003C088E790E00EC088E590E00BC0802F9B
:100E9000867881F001FF02C08BE201C080E2F7FC9E
:100EA0008DE290E0B3014DD005C080E390E0B30146
:100EB00048D09A94D914C8F3DA94F101ED0DF11DDC
:100EC000808190E0B3013DD0DD20B1F705C080E224
:100ED00090E0B30136D0EA94EE20C9F750CEF3018A
:100EE00066817781CB012B96E2E1D1C0E199FECFFB
:100EF0009FBB8EBBE09A99278DB30895262FE19969
:100F0000FECF9FBB8EBB2DBB0FB6F894E29AE19A41
:100F10000FBE01960895FC010590615070400110CC
:100F2000D8F7809590958E0F9F1F0895FC01615012
:100F3000704001900110D8F7809590958E0F9F1FFB
:100F400008950F931F93CF93DF938C01EB018B8157
:100F500081FF1BC082FF0DC02E813F818C819D814E
:100F60002817390764F4E881F9810193F983E8834C
:100F700006C0E885F985802F0995892B31F48E818B
:100F80009F8101969F838E8302C00FEF1FEFC801E0
:100F9000DF91CF911F910F910895FA01AA27283070
:100FA00051F1203181F1E8946F936E7F6E5F7F4F36
:100FB0008F4F9F4FAF4FB1E03ED0B4E03CD0670FB2
:100FC000781F891F9A1FA11D680F791F8A1F911D05
:100FD000A11D6A0F711D811D911DA11D20D009F455
:100FE00068943F912AE0269F11243019305D319397
:100FF000DEF6CF010895462F4770405D4193B3E080
:101000000FD0C9F7F6CF462F4F70405D4A3318F026
:10101000495D31FD4052419302D0A9F7EACFB4E0D7
:10102000A6959795879577956795BA95C9F700978F
:101030006105710508959B01AC010A2E0694579530
:10104000479537952795BA95C9F7620F731F841F87
:10105000951FA01D08952F923F924F925F926F921D
:101060007F928F929F92AF92BF92CF92DF92EF9238
:10107000FF920F931F93CF93DF93CDB7DEB7CA1BB9
:10108000DB0B0FB6F894DEBF0FBECDBF09942A88E4
:10109000398848885F846E847D848C849B84AA848C
:1010A000B984C884DF80EE80FD800C811B81AA8119
:1010B000B981CE0FD11D0FB6F894DEBF0FBECDBFE4
:0810C000ED010895F894FFCF43
:1010C800636F6465203D2064656661756C74203DBE
:1010D8002061626364656600636F6465203D202556
:1010E80063256325632563256325630A00537461BB
:1010F8007274006E657720636F6465203D202563F8
:10110800256325632563256325630A007265736576
:101118007420746F206170706C79206368616E67E9
:1011280065737373004C3130004C313100414C4CC5
:101138002D300053656E736F72202564203D202585
:1011480063256325632563256325630A0072657338
:10115800657420746F206170706C79206368616EAB
:1011680067657300726620000A1E01010101010112
:10117800010A42616420436F6D6D616E640A2D3E01
:1011880020000000000200000000430400000000EE
:00000001FF
